:020000040200F8
:1000000000BF01225125000291070002890700026A
:100010008907000289070002890700028907000298
:10002000000000000000000000000000890700023E
:10003000890700020000000089070002890700020A
:100040004164000241650002F96400028963000214
:10005000196C0002D96C0002616C0002716B000225
:10006000412900024164000241650002F964000276
:1000700089630002113300026162000229630002F9
:10008000E162000221620002512900024164000283
:1000900041650002F9640002896300020166000202
:1000A00051660002E966000251290002B97400029B
:1000B000D974000289740002A1740002597500020B
:1000C00029750002417500020000000000000000D8
:1000D0000000000000000000000000000000000020
:1000E0000000000000000000000000000000000010
:1000F0000000000000000000000000000000000000
:1001000000000000000000000000000000000000EF
:1001100000000000000000000000000000000000DF
:1001200000000000000000000000000000000000CF
:1001300000000000000000000000000000000000BF
:1001400000000000000000000000000000000000AF
:10015000000000000000000000000000000000009F
:10016000000000000000000000000000000000008F
:10017000000000000000000000000000000000007F
:10018000000000000000000000000000000000006F
:10019000000000000000000000000000000000005F
:1001A000000000000000000000000000000000004F
:1001B000000000000000000000000000000000003F
:1001C0002DE9F05F0546002092469B46884606468C
:1001D000814640241BE0284641464746224600F01F
:1001E0009AF853465A46C01A914110D31146184600
:1001F000224600F081F82D1A67EB01084F4622468F
:100200000120002100F078F817EB00094E41201E74
:10021000A4F10104DFDC484631462A464346BDE8E6
:10022000F09F2DE9F0410024061B254671F10006E0
:1002300005DA01240027D0EB070067EB0101161E49
:1002400073F1000605DA0027D2EB0702012567EB00
:100250000303FFF7B5FF86460E4617469C46AC42A1
:1002600004D00025D0EB050E65EB010624B100207B
:10027000D2EB000760EB030C704631463A4663460A
:10028000BDE8F08140EA01039B0703D009E008C9FB
:10029000121F08C0042AFAD203E011F8013B00F84B
:1002A000013B521EF9D27047D2B201E000F8012B97
:1002B000491EFBD270470022F6E710B513460A46E6
:1002C00004461946FFF7F0FF204610BD30B50B4637
:1002D000014600202022012409E021FA02F59D4276
:1002E00005D303FA02F5491B04FA02F52844151E4A
:1002F000A2F10102F1DC30BD202A04DB203A00FA31
:1003000002F1002070479140C2F1200320FA03F36C
:10031000194390407047202A04DB203A21FA02F06A
:100320000021704721FA02F3D040C2F1200291402F
:100330000843194670472DE9FE4F804681EA0300C5
:10034000C00F0C46009021F0004123F00045B8EBAF
:100350000200A94105D24046214690461C460B4664
:10036000024623F00040104347D0270DC7F30A0090
:10037000C3F30A510290401A019040286BDAC3F38C
:10038000130040F4801B0098924620B10023D2EB6A
:10039000030A63EB0B0B01985946C0F1400250462B
:1003A000FFF7AAFF06460D4650465946019A00F04F
:1003B0007BF910EB08006141002487EA115284EABE
:1003C000E7731A4340D0009A62B3019A012A4FEAB8
:1003D000075215DC001B61EB02014FF0004202EAFC
:1003E0000752CDE90042001C41F5801132462B46F0
:1003F00000F07BF903B0BDE8F08F40462146F9E7F5
:10040000001B61EB0201001C41F5801300185B41E9
:100410002018A2F5001747EB030140EAD570B61982
:100420006D4111E06D084FEA360645EAC0754FEAA6
:100430000752001B61EB0201001C41F580114908C5
:100440004FEA30000019514132462B4603B0BDE857
:10045000F04F00F03BB90098012240000023D0EBA0
:10046000020263EBE073009821464FEAE074B8EBB8
:10047000000061EB0401E9E783F000435BE781F0F2
:10048000004158E72DE9FE4F81EA030404F00044DF
:1004900021F0004100944FF0000B23F0004350EA9C
:1004A00001045ED052EA03045BD0C3F30A54C1F3E3
:1004B0000A552C44A4F2F3340194A0FB0254C1F376
:1004C000130141F48011C3F3130343F4801301FBC0
:1004D000024400FB034E840A970A44EA815447EA27
:1004E0008357A4FB076802958D0A05FB07854FEA31
:1004F000932C04FB0C542705029D4FEA065847EA4B
:100500001637B5EB08056EEB070C870E920E47EA1F
:10051000811742EA8312A7FB0201B6EB0B0164EBE1
:1005200000042B0D43EA0C335E1844EB1C50DA46F2
:100530005146E7FB0201C5F313044FEA0B3343EACC
:1005400014534FEA0432019C43EA0603A4F10C045D
:100550000294009CCDE900B400F0C7F803B0BDE8F8
:10056000F08F00200146F9E72DE9F04D81EA030400
:1005700004F0004B21F0004514464FF0000A23F030
:10058000004150EA050220D054EA01021DD0C5F313
:100590000A570246C5F31303C1F31300C1F30A5609
:1005A00040F4801543F48013A7EB0608101BD646D1
:1005B00008F2FD3873EB050002D308F1010801E0F1
:1005C00092185B41B8F1000F03DA00200146BDE844
:1005D000F08D00204FF48011064684460EE0171B74
:1005E00073EB050705D3121B63EB050306434CEAC7
:1005F000010C49084FEA300092185B4150EA0107AC
:10060000EDD152EA030012D082EA040083EA050128
:10061000084305D0101BAB4106D20122002306E09F
:1006200000224FF0004302E06FF0010253101AEB7A
:1006300006004CEB085110EB0A0041EB0B01BDE842
:10064000F04D00F043B8C1F30A52C1F3130140F278
:10065000FF3341F480119A4202DA002001467047CC
:1006600040F233439A42A2F2334202DC5242FFF795
:1006700052BEFFF741BE000030B5041E71F1000408
:1006800004DB4FF00044404264EB0101141E73F19F
:10069000000405DB1C464FF00043524263EB0403A9
:1006A000994208BF904230BD202A06DBCB17203A82
:1006B00041FA02F043EAE07306E041FA02F3D04067
:1006C000C2F12002914008431946704710B5141E2C
:1006D00073F1000408DA401C41F1000192185B41FB
:1006E0001A4301D120F0010010BD2DE9F04D9246D2
:1006F0009B4611B1B1FA81F202E0B0FA80F22032E9
:100700009046FFF7F9FD04460F4640EA0A0041EA29
:100710000B0153465A46084313D0114653EA0100D1
:1007200019D0C8F140025046FFF7F5FD05460E46C8
:10073000504659464246FFF7DFFD084305D00120E9
:1007400004E020463946BDE8F08D0020054346EA26
:10075000E0762C4337430A986305E40AA0EB0800CF
:100760000022FD0A44EA47540A3002D5002001461F
:10077000E9E7010510196941DDE9084500196941FA
:10078000BDE8F04DA2E7000000BE70470000000089
:1007900080B582B04CF20010C4F200000088ADF8C1
:1007A00006004CF22010C4F200000088BDF80610CC
:1007B0000840ADF8040000208DF80300FFE79DF825
:1007C00003000F2814DCFFE7BDF804009DF80310B8
:1007D000C840C00728B1FFE79DF8030002F0D0FA37
:1007E000FFE7FFE79DF8030001308DF80300E6E71F
:1007F000BDF804004CF21011C4F200010880FFE7BC
:100800004CF22010C4F200000088BDF8041008402B
:10081000000408B1FFE7F3E702B080BD000000006C
:100820004CF20411C4F2010101200880FFE74CF2F0
:100830000410C4F20100008808B1FFE7F7E74CF2AA
:100840000011C4F20101012008807047000000007F
:1008500080B584B042F22801C4F220010020029049
:100860000870C820012100F087FB029842F22401A1
:10087000C4F220010870FFE742F22400C4F2200015
:10088000007808B1FFE7F7E742F22401C4F2200143
:10089000087840F002000870FFE742F22400C4F23A
:1008A000200000784008C00708B1FFE7F5E742F2F2
:1008B0002201C4F2200100200870FFE742F222006A
:1008C000C4F22000007808B1FFE7F7E700208DF8B8
:1008D0000F00FFE79DF80F00022822D8FFE79DF8E0
:1008E0000F2042F24001C4F2200111F8120000F082
:1008F0007F0001F81200FFE79DF80F1042F2400060
:10090000C4F2200010F811100020B0EBD11F01D06C
:10091000FFE7F1E7FFE79DF80F0001308DF80F00CA
:10092000D8E70120019000F09FFA01984EF64C4262
:10093000C4F201020021117000F0D6FA04B080BDAB
:1009400080B584B08DF80F00029101929DF90F00DF
:10095000029901F0ADFF9DF90F00019901F0DCF85B
:1009600004B080BD0000000080B584B08DF80F0099
:10097000029101929DF90F00029901F0BDFF9DF9CE
:100980000F00019901F0D8F804B080BD000000000C
:1009900080B584B08DF80F00029101929DF90F008F
:1009A0000299019AFFF7CCFF9DF90F0000F0B8F80B
:1009B00004B080BD0000000080B582B08DF8070053
:1009C0009DF9070000F048F9BFF35F8F9DF907001C
:1009D0000090009800F01F01012088409DF9071049
:1009E0004A094EF28021CEF2000141F8220002B005
:1009F00080BD00000000000080B582B08DF80700C7
:100A00009DF9070000F058F9BFF35F8F9DF90700CB
:100A10000090009800F01F01012088409DF9071008
:100A20004A094EF28021CEF2000141F8220002B0C4
:100A300080BD00000000000080B582B08DF8070086
:100A40009DF9070000F068F9BFF35F8F9DF907007B
:100A50000090009800F01F01012088409DF90710C8
:100A60004A094EF28021CEF2000141F8220002B084
:100A700080BD00000000000082B08DF807009DF9E5
:100A800007000090009800F01F01012088409DF9A8
:100A900007104A094EF28011CEF2000141F82200FF
:100AA000BFF34F8FBFF36F8F02B07047000000009D
:100AB00082B08DF807009DF907000090009800F0C3
:100AC0001F01012088409DF907104A094EF280114C
:100AD000CEF2000141F82200BFF34F8FBFF36F8FBA
:100AE00002B070470000000082B08DF807009DF949
:100AF00007000090009800F01F01012088409DF938
:100B000007104A094EF28011CEF2000141F822008E
:100B1000BFF34F8FBFF36F8F02B07047000000002C
:100B200080B582B08DF807009DF90700FFF744FFFC
:100B30009DF9070000F024F802B080BD000000001D
:100B400080B582B08DF807009DF90700FFF754FFCC
:100B50009DF9070000F028F802B080BD00000000F9
:100B600080B582B08DF807009DF90700FFF764FF9C
:100B70009DF9070000F02CF802B080BD00000000D5
:100B800082B08DF807009DF907000090009901F0F0
:100B90001F02012090404A094EF20011CEF20001DE
:100BA00041F8220002B0704782B08DF807009DF92D
:100BB00007000090009901F01F02012090404A09AF
:100BC0004EF20011CEF2000141F8220002B070474F
:100BD00082B08DF807009DF907000090009901F0A0
:100BE0001F02012090404A094EF20011CEF200018E
:100BF00041F8220002B0704781B08DF803009DF9E2
:100C000003204CF20030C4F2000050F8221021F40E
:100C1000803140F822109DF9031050F8210001B0F6
:100C2000704700000000000081B08DF803009DF9BE
:100C300003204CF20030C4F2000050F8221021F4DE
:100C4000803140F822109DF9031050F8210001B0C6
:100C5000704700000000000081B08DF803009DF98E
:100C600003204CF20030C4F2000050F8221021F4AE
:100C7000803140F822109DF9031050F8210001B096
:100C8000704700000000000081B08DF803009DF95E
:100C900003204CF20030C4F2000050F8221021F47E
:100CA000803140F822109DF9031050F8210001B066
:100CB000704700000000000081B08DF803009DF92E
:100CC00003204CF20030C4F2000050F8221021F44E
:100CD000803140F822109DF9031050F8210001B036
:100CE000704700000000000081B08DF803009DF9FE
:100CF00003204CF20030C4F2000050F8221021F41E
:100D0000803140F822109DF9031050F8210001B005
:100D1000704700000000000081B08DF803009DF9CD
:100D200003204CF20030C4F2000050F8221021F4ED
:100D3000803140F822109DF9031050F8210001B0D5
:100D4000704700000000000081B08DF803009DF99D
:100D500003204CF20030C4F2000050F8221021F4BD
:100D6000803140F822109DF9031050F8210001B0A5
:100D7000704700000000000084B000200090EFF3F6
:100D8000108001900198009001200390039880F357
:100D9000108840F23060C2F20020006840B1FFE7E6
:100DA00040F23061C2F20021086801380860FFE7B4
:100DB00040F23060C2F20020006848B9FFE740F618
:100DC0001451C4F240010020087080200870FFE731
:100DD00000980290029880F3108804B070470000D9
:100DE00084B000200090EFF31080019001980090F3
:100DF00001200390039880F3108840F23060C2F223
:100E00000020006848B9FFE740F61451C4F24001E1
:100E10000020087040200870FFE740F23061C2F205
:100E2000002108680130086000980290029880F361
:100E3000108804B07047000081B0ADF80200BDF822
:100E400002106FF03F0000EA9100C9B200EB810090
:100E500040F60001C4F240014058C0F3400001B028
:100E6000704700000000000085B08DF807000020EA
:100E70000090EFF3108002900298009001200490FF
:100E8000049880F310889DF8071040F22860C2F2A1
:100E9000002030F8110090B9FFE74EF2FA31C4F2A9
:100EA000010108889DF807304CF2DC42C0F20222B2
:100EB00032F81320104340F425400880FFE79DF8E6
:100EC000072040F22861C2F2002131F812000130FF
:100ED00021F8120000980390039880F3108805B061
:100EE000704700000000000085B08DF8070000206A
:100EF0000090EFF31080029002980090012004907F
:100F0000049880F310889DF8071040F22860C2F220
:100F1000002030F8110060B1FFE79DF8072040F293
:100F20002861C2F2002131F81200013821F81200C4
:100F3000FFE79DF8071040F22860C2F2002030F869
:100F4000110090B9FFE74EF2FA31C4F201010888AE
:100F500040F425409DF807304CF2DC42C0F20222FA
:100F600032F8132090430880FFE70098039003981D
:100F700080F3108805B0704780B58CB00B900A9153
:100F8000002008900B980A994843079040F280503F
:100F9000C2F2002000680990099841F20021C0F2D5
:100FA0007A0188421AD3FFE709984DF68361C4F2AB
:100FB0001B31A0FB0110800C069007980699A0FB3E
:100FC000010105910490059820B1FFE74FF0FF3033
:100FD000089002E004980890FFE731E009994CF688
:100FE0000020C3F69A30B0FBF1F0029007984FF45E
:100FF0007A71A0FB010101910090019840B9FFE7CF
:1010000000980299B0FBF1F003900398089016E065
:1010100007980299B0FBF1F0079007984FF47A71A6
:10102000A0FB010101910090019818B9FFE7009819
:10103000089003E04FF0FF300890FFE7FFE7FFE77D
:10104000089820B1FFE7089801F0B2FFFFE70CB065
:1010500080BD00000000000082B08DF807009DF800
:10106000071049F6D460C2F2002050F82100009029
:10107000009802B07047000081B0009001B0704746
:1010800081B08DF803009DF8030008B9FFE7FFE782
:101090009DF80300012801D1FFE707E09DF8030058
:1010A000022801D1FFE700E0FFE7FFE701B070474A
:1010B00085B00490039102920193049800900398E4
:1010C0000099486102980099C86101980099886167
:1010D000002005B07047000086B00490039104988A
:1010E000029048F27C00C4F234000068C00708B9DE
:1010F000FFE702E00820059049E048F20000C4F252
:1011000034000068000CC00708B9FFE702E00820BF
:1011100005903CE048F20000C4F234000068C007CB
:1011200008B9FFE702E01E20059030E00298006851
:10113000406901900398029988600198007802281C
:1011400010D1FFE703980299C9680844013800905C
:101150000098012161F3040048F25C01C4F23401FB
:101160000860FFE70298806848F23C01C4F234014D
:10117000086048F27401C4F234010020086048F2AB
:101180000002C4F23402012111600590FFE70598C6
:1011900006B070470000000080B588B00490049845
:1011A0000390039802F074F848F20001C4F234018D
:1011B0004FF480300860039900200190486002904D
:1011C000EFF3108005900598029001210791079890
:1011D00080F3108843F20800C4F22000026842F451
:1011E0008032026000689620FFF7C6FE01980299DF
:1011F0000691069981F3108808B080BD00000000B8
:1012000080B592B00E900D910E980C900D980C999F
:1012100008600C98006840690B900B984078002893
:101220005FEA1F908DF82B000B98407801300990F1
:101230000D994888097A484308909DF82B100120A1
:1012400011F0010F50EA0090079008980999B0FB3F
:10125000F1F006900D98C088059006980799B0FBAC
:10126000F1F00490059803900D98C0680C994861BE
:101270000B980078022805D1FFE70B9880680C993D
:10128000C86005E00698089948430C99C860FFE7D4
:1012900000200290EFF310800F900F980290012130
:1012A0001191119880F3108843F20800C4F22000D5
:1012B000026822F48032026000689620FFF75CFE2C
:1012C00002981090109880F31088FFE748F27C0095
:1012D000C4F234000068C00708B1FFE7F6E7FFE793
:1012E00048F20000C4F234000068000CC00708B1E6
:1012F000FFE7F5E70B98417B4FF4401000EA0150FF
:1013000048F20401C4F234010860DDF82CC09CF8F6
:1013100000309CF801209CF802109CF8030000F0BB
:1013200001009CF804C00CF0010C40EA4C0003F0F2
:10133000030340EA031002F0010240EA023001F028
:10134000010240EA0260C1F3400240EA8260C1F358
:10135000800140EAC16048F20801C4F2340108602B
:101360000D994888C98840EA014020F0C02048F221
:101370000C01C4F2340108600D98008807994843B5
:10138000019001986FF35F300D998A880021C0F6B3
:10139000FF7101EA0242104448F21002C4F2340222
:1013A000106006986FF35F30059A01EA0241084425
:1013B00048F21401C4F23401086048F25C01C4F23E
:1013C0003401002000900860039A04996FF31F31E4
:1013D00062F31B4148F23402C4F2340211600899EE
:1013E00048F23802C4F23402116048F26001C4F2DB
:1013F000340108600B990A7B02F00101C2F340033B
:1014000041EA4301C2F3800241EA8201103148F20D
:101410006402C4F2340211600C9988600C9944F2A1
:101420005550C5F2432048600C9801F04DFF0098DC
:1014300012B080BD0000000084B0039002910398B8
:10144000019048F20000C4F234000068000CC007AC
:1014500020B1FFE702990220087018E048F27C00F2
:10146000C4F2340001680120C907009049B9FFE7C0
:1014700048F20000C4F23400006800F0010000905F
:10148000FFE7009800F0010002990870FFE701985B
:1014900080680299486048F28400C4F23400006811
:1014A00002998860002004B070470000000000002E
:1014B00086B002900298019000200090EFF3108017
:1014C00003900398009001200590059880F3108800
:1014D0000198407868B9FFE70198C168087900F081
:1014E000BF0008710198C168087A00F0BF00087257
:1014F0000CE00198C168087900F07F00087101983C
:10150000C168087A00F07F000872FFE70098049035
:10151000049880F3108801990020486006B0704755
:1015200080B594B00A9009910A980890089943F2FE
:101530000000C4F23300C8600998007800F0010090
:10154000089948700998007840088DF81F0000201D
:1015500001900690EFF310800D900D9806900121F8
:1015600002911391139880F310889DF81F00C0F129
:10157000140001FA00F343F20C00C4F220000268E8
:101580009A43026000689620FFF7F6FC01990298E2
:10159000069A1292129A82F310880591EFF3108145
:1015A0000C910C9905911190119880F3108808986E
:1015B000407838B9FFE70898C168087900F0BF00A3
:1015C000087106E00898C168087900F07F0008718A
:1015D000FFE705981090109880F3108809984068EC
:1015E00004900498C078C0010899C96848710898A7
:1015F000C068807968BBFFE709984078C00740B3AE
:10160000FFE700200390EFF310800B900B980390FE
:1016100001210F910F9880F3108843F20C00C4F25F
:101620002000026822F40042026000689620FFF762
:10163000A3FC03980E900E9880F310880898C16858
:101640004FF48652022088540898C168802088711F
:10165000FFE704984078089900F0010008720498A8
:101660008078089900F0010048720998007808997C
:101670000870089944F20030C4F2414048600020EC
:1016800014B080BD0000000080B590B006900698B0
:1016900005900598007AC007002800F08280FFE7D7
:1016A0000599C868497830F81100ADF8120005981E
:1016B000C1684278002021F812000390EFF31080F7
:1016C00009900998039001200F900F9880F31088DB
:1016D00005984078C8B9FFE70598C168087900F017
:1016E000BF0008710598C168087F40F04000087786
:1016F0000598C168087A40F0400008720598C168F2
:10170000087940F04000087118E00598C168087930
:1017100000F07F0008710598C168087F40F08000E4
:1017200008770598C168087A40F08000087205982B
:10173000C168087940F080000871FFE703980E90B7
:101740000E9880F31088042001210191FFF714FC0A
:101750000198EFF310810891089903910D900D986D
:1017600080F310880598407838B9FFE70598C1687C
:10177000087F00F0BF00087706E00598C168087F81
:1017800000F07F000877FFE703980C900C9880F337
:101790001088BDF81200059AD168527821F812001D
:1017A00043E000200290EFF310800790079802902A
:1017B00001200B900B9880F3108805984078C0B9F1
:1017C000FFE70598C168087900F0BF000871059827
:1017D000417A01F00102C168087F00F0BF0040EAD1
:1017E000821008770598C168087940F040000871B8
:1017F00015E00598C168087900F07F000871059828
:10180000427AC168087F00F07F0040EAC210087782
:101810000598C168087940F080000871FFE70298D8
:101820000A900A9880F31088FFE7002010B080BD6E
:1018300086B002900298019000200090EFF3108093
:1018400003900398009001200590059880F310887C
:101850000198407838B9FFE70198C168087900F02D
:10186000BF00087106E00198C168087900F07F00A8
:101870000871FFE700980490049880F31088002016
:1018800006B070470000000083B00290ADF806106B
:1018900002980090BDF80600009AD168527821F8AD
:1018A0001200002003B0704782B000900098022818
:1018B00005D8FFE700990120884001902BE00098AF
:1018C000032803D1FFE70620019024E000980428B4
:1018D00003D1FFE7082001901DE00098052803D1FF
:1018E000FFE70320019016E00098062803D1FFE7E8
:1018F000052001900FE00098072803D1FFE70A2098
:10190000019008E0FFE7FFE7FFE7FFE7FFE7FFE7FA
:1019100010200190FFE7019802B07047000000001E
:1019200082B0EFF30380019001980090BDF80000B1
:10193000103840B202B0704782B0EFF303800190DC
:1019400001980090BDF80000103840B202B0704716
:1019500082B0EFF30380019001980090BDF8000081
:10196000103840B202B0704782B0EFF303800190AC
:1019700001980090BDF80000103840B202B07047E6
:1019800082B0EFF30380019001980090BDF8000051
:10199000103840B202B0704782B0EFF3038001907C
:1019A00001980090BDF80000103840B202B07047B6
:1019B00082B0EFF30380019001980090BDF8000021
:1019C000103840B202B0704782B0EFF3038001904C
:1019D00001980090BDF80000103840B202B0704786
:1019E00082B0EFF30380019001980090BDF80000F1
:1019F000103840B202B0704781B08DF803009DF9F5
:101A0000031040F2E060C2F2002050F8210001B063
:101A1000704700000000000081B08DF803009DF9C0
:101A2000031040F2E060C2F2002050F8210001B043
:101A3000704700000000000081B08DF803009DF9A0
:101A4000031040F2E060C2F2002050F8210001B023
:101A5000704700000000000081B08DF803009DF980
:101A6000031040F2E060C2F2002050F8210001B003
:101A7000704700000000000081B08DF803009DF960
:101A8000031040F2E060C2F2002050F8210001B0E3
:101A9000704700000000000081B08DF803009DF940
:101AA000031040F2E060C2F2002050F8210001B0C3
:101AB000704700000000000081B08DF803009DF920
:101AC000031040F2E060C2F2002050F8210001B0A3
:101AD000704700000000000081B08DF803009DF900
:101AE000031040F2E060C2F2002050F8210001B083
:101AF000704700000000000081B08DF803009DF9E0
:101B0000031040F2E060C2F2002050F8210001B062
:101B1000704700000000000082B08DF807000091BF
:101B200000989DF9072040F2E061C2F2002141F8DF
:101B3000220002B07047000082B08DF807000091CB
:101B400000989DF9072040F2E061C2F2002141F8BF
:101B5000220002B07047000080B584B04EF25400FD
:101B6000C4F2010000780390039800F00F00FFF723
:101B70009BFE02904EF25500C4F20100007800F086
:101B80000F008DF807009DF80700FFF765FA02992E
:101B9000B0FBF1F004B080BD82B0019001980090DC
:101BA00000990020086002B07047000000000000AB
:101BB00080B584B00390029103980190019945F299
:101BC0005420C5F24F000860029803F015FF002072
:101BD00004B080BD0000000080B588B00790ADF86B
:101BE0001A100592BDF81A00ADF80400059800908F
:101BF0000120ADF808006846039002A801F01CFA25
:101C0000FFF7EEF8BDF81A00059903F0BDFEFFF7E7
:101C1000B3F8002008B080BD85B00490ADF80E1078
:101C20000292BDF80E100020C4F2400040EAD1003C
:101C300041F6E071C4F2400108400090009840680D
:101C4000000CADF806009DF80E1001208840ADF89C
:101C50000400BDF80600BDF804100840884204D115
:101C6000FFE702990120087003E002990020087044
:101C7000FFE7002005B0704780B582B00190ADF855
:101C800002108DF80120BDF8021021F0FF00C9B24A
:101C90009DF8012003F03CFE002002B080BD000052
:101CA00080B584B00390ADF80A100192BDF80A0027
:101CB000FFF7C2F801990870002004B080BD000051
:101CC00086B00590ADF812108DF811200020ADF807
:101CD0000E00ADF80C009DF813000002ADF80A00EC
:101CE0009DF81200ADF80800BDF8081001208840EA
:101CF000ADF806009DF8110028B9FFE7BDF8060011
:101D0000ADF80C0004E0BDF80600ADF80E00FFE7EA
:101D1000BDF80A100020C4F2400040EAD10041F6AC
:101D2000E071C4F2400108400090BDF80C10BDF80D
:101D30000E0040EA014000998860002006B070471C
:101D400080B582B001900091009803F055FE00200C
:101D500002B080BD0000000088B00790ADF81A10F6
:101D6000ADF81820ADF81630BDF81A100020C4F2F6
:101D7000400040EAD10041F6E071C4F24001084061
:101D80000090009800680490BDF81800BDF8161087
:101D900008400390BDF81810BDF816008843029063
:101DA00004980190039901980843019002990198C1
:101DB00088430190019800990860002008B070479E
:101DC00084B00390ADF80A100192BDF80A1000200B
:101DD000C4F2400040EAD10041F6E071C4F2400193
:101DE0000840009000984068000C0199088000208D
:101DF00004B070470000000085B00490ADF80E10EC
:101E0000ADF80C20ADF80A30BDF80C00BDF80A1092
:101E10000840ADF80800BDF80C10BDF80A00884372
:101E2000ADF80600BDF80E100020C4F2400040EAF4
:101E3000D10041F6E071C4F2400108400090BDF8C5
:101E40000610BDF8080040EA01400099C860002073
:101E500005B070470000000084B00390ADF80A1090
:101E60000192BDF80A100020C4F2400040EAD100FF
:101E700041F6E071C4F240010840009000984068CB
:101E800001990880002004B07047000000000000A5
:101E900085B00490ADF80E10ADF80C20ADF80A3006
:101EA000BDF80C00BDF80A100840ADF80800BDF8F8
:101EB0000C10BDF80A008843ADF80600BDF80E10FE
:101EC0000020C4F2400040EAD10041F6E071C4F2C3
:101ED000400108400090BDF80610BDF8080040EA37
:101EE000014000998860002005B0704700000000A4
:101EF00085B003908DF80B10039801900620009098
:101F00009DF80B00800700282BD5FFE700200090EC
:101F10000198016A886820F440108860FFE7019802
:101F2000006A806C800FC00708B9FFE7F7E70198E7
:101F3000016A886820F010008860FFE70198006A55
:101F4000007F0009C00708B1FFE7F7E7019900200B
:101F50000861009808B9FFE702E0009804900DE0DE
:101F6000FFE79DF80B00C00728B1FFE700200090B5
:101F700001998861FFE700980490FFE7049805B095
:101F8000704700000000000080B592B010908DF8FE
:101F90003F100E920D930D99FF2048700D9988788F
:101FA00000F0FE0088700D998020C87048F2A06093
:101FB000C0F201000C90002002908DF82F000A90D2
:101FC000FFF7CAFD0146029809910890FFE70899BA
:101FD00000200129019007D8FFE70C980E9988424C
:101FE0005FEADF900190FFE70198C007002800F04A
:101FF000DC80FFE700200790FFE707980C2800F23D
:10200000CF80FFE79DF82000079A4BF68C71C0F255
:1020100002218A5C510841EA920101F00101484025
:10202000000608B1FFE7B7E007994CF2C030C0F2F4
:10203000022030F81100109948430A9009980A9933
:10204000B0FBF1F006900698B0F5807F00F2A38017
:10205000FFE7FFE70698002800F09C80FFE706985E
:10206000013806900A98069901314843059009986D
:1020700048F2A061C0F20101A0FB0101059AD3174B
:10208000FEF7CFF847F66011CFF6FE7108440490D2
:1020900000208DF80F009DF83F00C00708B3FFE750
:1020A00005980999090AB0FBF1F08DF80F009DF928
:1020B0000F00002801D4FFE76CE0049848F2A0610B
:1020C000C0F2010108449DF80F104843C11700EB0E
:1020D000116147F66010CFF6FE7000EB21200490EE
:1020E000FFE70498B0F1FF3F04DCFFE704984042AB
:1020F0000490FFE704980C9988423ADAFFE70799C1
:102100004BF68C70C0F20220415C01F001030D9A85
:10211000117801F0EF0141EA031111700799435C56
:102120000D9A117803F0020301F0DF0141EA031177
:1021300011700799435C0D9A117803F0040301F0C4
:10214000BF0141EA031111700799425C0D9988782B
:1021500002F0180200F0CF0040EA420088700698B2
:102160000D99487004980C909DF80F008DF82F0081
:10217000FFE79DF83F00C00750B1FFE70D99887851
:1021800040F0010088709DF82F000D99C87000E0A4
:1021900000E05FE7FFE7FFE70798013007902CE7D3
:1021A000FFE708980130089011E70C980E998842D3
:1021B00001DCFFE702E00320119002E00020119013
:1021C000FFE7119812B080BD84B00390029103988C
:1021D00001900198006A806820F4401000900098F7
:1021E0004FF6EE71CFF6FE7108400199096A8860DA
:1021F00001990020C86002990968019A126A116168
:102200000099019A126A916004B0704700000000C2
:1022100085B0049003910292019304980090039872
:102220000099486202980099C862019800998862F2
:10223000002005B07047000080B588B00390039877
:1022400002900298406844F64211C5F24331884238
:1022500001D1FFE702E0072004905BE00298016AE9
:10226000886820F4401088600298016A886820F02D
:1022700010008860FFE70298006A007F0009C0072D
:1022800008B1FFE7F7E70298C06990F90700FEF789
:102290000FFC0298C06990F90900FEF709FC02984A
:1022A000016A886820F4803088600298C06990F9DB
:1022B0000500FEF7FDFB0298C06990F90B00FEF7E0
:1022C000F7FB002000900190EFF310800590059837
:1022D000019001210791079880F310880298C06946
:1022E0000078C0F11F0001FA00F343F20400C4F2C9
:1022F000200002681A43026000689620FEF73CFE48
:10230000009801990691069981F310880299486016
:102310000490FFE7049808B080BD000000000000B2
:1023200082B00190009100994FF0FF304860009911
:102330000860002002B0704780B58AB00690059111
:10234000069804900598017848F20000C4F2350020
:1023500000EB012004990862049900200870059997
:10236000049AD16105994969049A5162059989696C
:10237000049AD162049988620598C069039004990F
:10238000887800F0FC00013088700598407838B9F2
:10239000FFE70499887800F0FC0002308870FFE7BE
:1023A0000498059903F06CFB4FF4806002900020C4
:1023B00000900190EFF310800790079801900121A1
:1023C0000991099880F3108805980078C0F11F00E2
:1023D00001FA00F343F20400C4F2200002689A43B9
:1023E000026000689620FEF7C7FD019808900898E3
:1023F00080F3108802980499096A88600498059906
:1024000003F0FEFB00980499C860049908610499E0
:102410004861049988610398408904990881049867
:10242000016A1020C9F607508866029840F0010042
:1024300002900498C06990F90500FEF781FB0498AA
:10244000C06990F90B00FEF77BFB029840F48030E6
:1024500002900498C06990F90700FEF771FB049898
:10246000C06990F90900FEF76BFB029840F010007C
:10247000029002980499096A8860FFE70498006A4C
:10248000007FC00708B9FFE7F8E7049944F6421057
:10249000C5F24330486000200AB080BD0000000053
:1024A00085B004900391029204980190002000905E
:1024B000039801994861029801998861009805B0D4
:1024C000704700000000000083B002900191029864
:1024D0000090009880690199086000990020886147
:1024E00003B070470000000084B003900291019295
:1024F000039800900098016A886820F44010886072
:10250000FFE70098006A806C800FC00708B9FFE7FA
:10251000F7E70098016A886820F010008860FFE7FC
:102520000098006A007F0009C00708B1FFE7F7E7DD
:1025300001980099086102980099C8600098016AA2
:10254000886840F010108860002004B070470000D8
:1025500080B500F095F802F067FAFFE7FEE70000AB
:1025600082B04EF22600C4F20100007801904EF2D3
:102570002400C4F20100007800F00F008DF8030081
:102580009DF803008DF802009DF80200082814D180
:10259000FFE7019949F6D460C2F2002050F821000B
:1025A0004AF6AB21CAF6AA21A0FB0110400840F26E
:1025B0008051C2F2002108605DE09DF80200092808
:1025C00014D1FFE7019949F6D460C2F2002050F817
:1025D00021004AF6AB21CAF6AA21A0FB011080080F
:1025E00040F28051C2F20021086043E09DF80200F1
:1025F0000A2814D1FFE7019949F6D460C2F20020FD
:1026000050F821004AF6AB21CAF6AA21A0FB01101E
:10261000C00840F28051C2F20021086029E09DF814
:1026200002000B2814D1FFE7019949F6D460C2F2E9
:10263000002050F821004AF6AB21CAF6AA21A0FBDF
:102640000110000940F28051C2F2002108600FE041
:10265000019949F6D460C2F2002050F821009DF89B
:102660000210C84040F28051C2F200210860FFE72A
:10267000FFE7FFE7FFE702B070470000000000003F
:1026800080B588B04EF61451CEF2000140F2012020
:10269000C0F20E000860BFF34F8FBFF36F8F4EF292
:1026A0000001CEF20101086840F004000860BFF3A9
:1026B0004F8FBFF36F8F4EF20801CEF20001086812
:1026C00040F480300860BFF34F8FBFF36F8F4EF63A
:1026D0008851CEF200014FF47000086040F2000013
:1026E000C0F2002001904EF60851CEF200010860C1
:1026F00000200290FEF7C4FC00F06AFA0120FEF709
:10270000BFFC01980068A0F580300790079880F31F
:102710000A8840F28050C2F2002049F65411C0F2FB
:102720000001FDF7C8FD40F20000C2F200204CF6A7
:102730000041C0F2022140F28052C0F20002FDF7D7
:10274000A1FD00F06DFB00F037FB0298BFF34F8F47
:10275000BFF36F8F4EF65071CEF200010860BFF3E9
:102760004F8FBFF36F8F40F2C012C0F2002240F2D1
:10277000C011C0F20021891A891006910590FFE767
:1027800005980699884210DAFFE7059940F2C010D3
:10279000C0F2002050F821100844049004988047AB
:1027A000FFE7059801300590EAE7FFF7D9FEFEF74D
:1027B0004FF80320FEF758FB00200390FFE7039833
:1027C0000B280DD8FFE7039A40F63051C4F24001C0
:1027D000002021F82200FFE7039801300390EEE784
:1027E00003200090FEF780FB0098FEF73DFB009869
:1027F00044F20402C4F220020021116044F20802F3
:10280000C4F22002116044F20C02C4F220021160F2
:1028100044F21002C4F220021160FEF765FB4EF292
:10282000D830C4F20100006858B1FFE74EF2D8304A
:10283000C4F20100006801282ED1FFE7012058BB37
:10284000FFE74EF21010C4F20100007820B3FFE75A
:102850000120FEF709FBFFE74EF21010C4F2010061
:10286000007800F0C000802801D0FFE7F4E74EF2C6
:102870001011C4F2010100200870FFE74EF21010A1
:10288000C4F20100007810F0C00F01D0FFE7F5E7B7
:102890000120FEF729FBFFE70220FEF7F1FB00F025
:1028A000DBFA002000F0B8FA08B080BD000000009C
:1028B00082B08DF8070000919DF9070000280AD426
:1028C000FFE7009800019DF907104EF20042CEF29A
:1028D000000288540BE0009800019DF8071001F0F9
:1028E0000F014EF61452CEF200028854FFE702B0F8
:1028F000704700000000000082B08DF807000091D2
:102900009DF9070000280AD4FFE7009800019DF90F
:1029100007104EF20042CEF2000288540BE00098FD
:1029200000019DF8071001F00F014EF61452CEF28F
:1029300000028854FFE702B070470000000000006A
:1029400080B5002002F0BCFF80BD00000000000048
:1029500080B58AB0FEF7F0FF8DF827009DF92700BB
:10296000FEF762F99DF92700FFF756F808900898DE
:10297000007BC00728B1FFE7089880680C30019001
:1029800004E00898806808300190FFE701980790FC
:1029900007980078069008984068007801280BD1C5
:1029A000FFE70799F4200870069800F0F000069001
:1029B000069807990870FFE708984069A0B3FFE7F9
:1029C000089880690290029818B9FFE703A802905E
:1029D00007E0029A1068516892680592049103908A
:1029E000FFE79DF818008006002804D5FFE702994C
:1029F00000200871FFE70898C069029908600898EC
:102A00004169029888470898806948B1FFE70898AB
:102A100081690398049A059B8B604A600860FFE710
:102A2000079800780690FFE7069800F00F000799D6
:102A300008700AB080BD000080B500F099FF40F238
:102A40008C51C2F200210120087000F08DF880BD89
:102A500080B582B08DF807009DF80700014600910F
:102A600004282AD80099DFE801F003270C151E007E
:102A700045F23C60C0F2012047F62E6100F024F8D8
:102A80001EE048F29230C0F2002046F2843100F09D
:102A90001BF815E04DF26A40C0F2012047F21741E1
:102AA00000F012F80CE04EF21670C0F2002046F66C
:102AB000267100F009F803E0FFE700F055F8FFE7A2
:102AC00002B080BD0000000080B586B00590049182
:102AD00040F28C50C2F20020007830B1FFE7059838
:102AE00018B1FFE7049808B9FFE738E00020039029
:102AF000FFE70398049988422ED2FFE705980399CF
:102B0000405CC0EBC0014FF60010CFF6FF7000EB49
:102B100041000290029800F5006001900198B0F128
:102B2000FF3F03DCFFE70020019009E00198B0F5CA
:102B3000805F04DBFFE740F6FF700190FFE7FFE7EF
:102B4000BDF8040000F02CFF7D2004F0DDF8FFE765
:102B5000039801300390CCE700F006F8FFE706B0D9
:102B600080BD00000000000080B54FF4006000F060
:102B700017FF80BD0000000080B549F6D461C2F2A5
:102B8000002146F60040C0F2DC20086041F200203F
:102B9000C0F27A0048604FF40040886042F600526C
:102BA000C0F23112CA60086143F60000C1F69C40D1
:102BB000486141F60042C0F64E62CA61086288610F
:102BC00048628862FFF7CCFC80BD00000000000076
:102BD00080B582B04EF2FA31C4F201014AF20350DC
:102BE0000880FDF71DFEFFF7C7FF4EF65021C4F227
:102BF0000101062008704EF2A201C4F20101092071
:102C0000087000F0D9F94EF23601C4F2010100203B
:102C100008704EF23201C4F201010870FFE74EF273
:102C20003C00C4F201000078C008C00708B9FFE703
:102C3000F5E74EF24800C4F2010045F6017101804B
:102C40004EF24E02C4F2010240F2111010804EF218
:102C50004A02C4F20102002010704EF22802C4F2AF
:102C6000010211804EF24C02C4F2010240F2311115
:102C700011804EF22A01C4F201010870FFE74EF202
:102C80003C00C4F2010000784009C00708B9FFE722
:102C9000F5E700F039F94EF23001C4F201010120EC
:102CA00008704EF25201C4F2010108704EF2530155
:102CB000C4F20101087000208DF807009DF807009C
:102CC0004EF23E01C4F2010108709DF8070040F089
:102CD00080008DF807009DF8070008704EF274011F
:102CE000C4F20101087840F040000870FFE74EF29E
:102CF0007400C4F2010001780120B0EBD11F01D0B3
:102D0000FFE7F4E74EF26C01C4F2010106200870FF
:102D10004EF27401C4F201014720087007200870C8
:102D2000FFE74EF27400C4F2010001780020B0EB1E
:102D3000D11F01D0FFE7F4E74EF25500C4F20100C5
:102D40004EF25401C4F20101002300931A4600F030
:102D5000ABF8009B4EF25700C4F201004EF2560150
:102D6000C4F201011A4600F09FF84EF2FA31C4F2A3
:102D700001014FF42540088002B080BD0000000032
:102D800080B582B08DF807009DF8071040F2B05072
:102D9000C2F2002050F8210050B1FFE79DF8070073
:102DA00040F2B051C2F2002151F820108847FFE7ED
:102DB00002B080BD0000000080B586B040F2000087
:102DC000C2F2000005904DF28011C0F20221049180
:102DD0004DF28010C0F20220401AC008039040F269
:102DE0000001C2F20001029140F20000C2F20000B4
:102DF000401AC008019005980499039A01F0A8FEB2
:102E0000029801996A46116000231A4601F0BCFE3F
:102E100006B080BD0000000081B0009001B0704796
:102E200080B584B040F20000C0F2000003904DF283
:102E30008011C0F2022102914DF28010C0F20220F6
:102E4000401AC008019003980299019A01F080FE8F
:102E500004B080BD0000000081B000200090FFE7BA
:102E600000985F281CD8FFE700994CF2DA30C0F2D6
:102E7000022030F8110070B1FFE7009A4CF2DA300E
:102E8000C0F2022030F812004CF20031C4F200010E
:102E900041F82200FFE7FFE7009801300090DFE7EC
:102EA00001B070470000000083B0029001918DF8DE
:102EB00003208DF802300299087840F04000087035
:102EC000FFE7029801780120B0EBD11F01D0FFE7A6
:102ED000F7E79DF80300019908709DF8020040F0A3
:102EE000C000029908700299087800F0BF000870CD
:102EF000FFE7029801780020B0EBD11F01D0FFE777
:102F0000F7E703B07047000080B588B04CF21C11A1
:102F1000C4F20101042008704EF22001C4F2010144
:102F2000029142F23230C3F21210039008604EF266
:102F30002401C4F2010101910120079008704EF2B2
:102F40002601C4F201010591052006900870FFF7E3
:102F500007FB079996200490FEF70EF8019B029953
:102F6000039800221A700860FFF7FAFA049807998C
:102F7000FEF702F8059906980870FFF7F1FA07982E
:102F800042F20001C4F200014AF201520A80BFF38A
:102F90005F8F42F20802C4F200021070BFF35F8F2D
:102FA0004FF42540088008B080BD000000000000FC
:102FB00001380028FCD1704780B54EF60040C4F2BD
:102FC0000100007840B9FFE74EF60140C4F201006D
:102FD0000078800738B3FFE74EF60040C4F20100E6
:102FE0000078A0B9FFE74EF60040C4F201000121CD
:102FF0000170C820FDF7C0FFFFE74EF60040C4F2A5
:1030000001000078012801D0FFE7F6E7FFE74EF660
:103010000141C4F20101002008704EF60041C4F2E3
:103020000101087004E04FF47A70FEF725F8FFE71D
:1030300080BD00000000000080B588B007904EF20F
:103040000000C4F20100049042F20000C4F220002B
:10305000039000200690FFE70698079909888842A8
:1030600080F0A780FFE700200590FFE70598022881
:1030700000F29A80FFE707984068069900EBC100CC
:103080008088059A4CF28851C0F2022131F8121062
:10309000884240F08480FFE707984068069950F81E
:1030A000310000F0F85002900298B0F1807F05D016
:1030B000FFE70298B0F1106F38D1FFE7049890F85D
:1030C0004C0C059A012191400840000688B9FFE7A1
:1030D00001200190FDF7C8FE0198059900FA01F35F
:1030E000049A92F84C1C194382F84C1CFDF7FCFE24
:1030F00000E0FFE70398059900EB410090F84010CD
:103100000020B0EBD11F0FD1FFE70398059900EB2A
:10311000410191F8400040F0800081F84000C82053
:103120000121FDF729FF00E0FFE737E0049890F860
:103130004C0C059A012191400840C0B2012811DBD6
:10314000FFE701200090FDF78FFE0098059900FA37
:1031500001F3049A92F84C1C994382F84C1CFDF739
:10316000C3FE00E0FFE70398059900EB410090F8EB
:103170004000C00901280FDBFFE70398059900EB29
:10318000410191F8400000F07F0081F84000C82024
:103190000121FDF7F1FE00E0FFE7FFE7FFE7FFE7B2
:1031A00005980130059061E7FFE706980130069029
:1031B00052E708B080BD000083B001908DF8031085
:1031C0000198008820B1FFE70198408820B9FFE707
:1031D00000208DF80B0027E09DF80300012804D1A2
:1031E000FFE704208DF80B001EE00198407B322899
:1031F00004DBFFE704208DF80B0015E00198407B0D
:10320000252804DBFFE703208DF80B000CE0019874
:10321000407B192804DBFFE702208DF80B0003E058
:1032200001208DF80B00FFE79DF80B0003B07047FD
:1032300080B586B00590049105988069009000984B
:1032400018B9FFE7049800900FE0009A10685168E1
:1032500092680392029101900099049B18685A6841
:103260009B688B604A600860FFE705984169009899
:1032700088470598806948B1FFE7059881690198FA
:10328000029A039B8B604A600860FFE706B080BD2E
:1032900080B584B0039048F27001C4F2340100207C
:1032A000019008600398006840690290029890F9C4
:1032B0001500FDF7E1FB0199029890F91500FEF762
:1032C0002BFC04B080BD000080B582B00190019855
:1032D00000684069009000980069019908610099B0
:1032E00091F91500097D019AFDF752FB48F274012E
:1032F000C4F23401002008600198006948F27001AE
:10330000C4F23401086002B080BD0000000000007B
:1033100080B586B048F27401C4F2340108680590A3
:103320000598C0430860FEF713FB8DF813009DF964
:103330001300FDF791FC9DF91300FEF77DFB039050
:103340000398406980B1FFE705980399096908402F
:1033500000900398806801900398C06902900398D8
:103360006946FFF765FFFFE706B080BD000000007B
:1033700010B5A4B020AA1E9223902291239802F0A7
:1033800073F969460B9102201C9008620520159084
:10339000C861886144F68400C0F20220486144F6A6
:1033A0006C10C0F20220086108201290C8601E2034
:1033B0000E9088600E200D90486040F60000C6F622
:1033C00000000C90086045F66050C6F60000202111
:1033D0001B9140220123189300F09AF90C980D9943
:1033E0000E9A129BEE464FF00F0CCDF844C0CEF86B
:1033F00008C04FF0070CCDF840C0CEF804C043F62B
:10340000804CC6F6000CCDF83CC0CEF800C001F0F0
:1034100017FB0F981099119A129BDDF854C0EE46D5
:10342000CDF84CE00324CEF81C40CEF8184044F60A
:10343000A404C0F20224CEF8144044F68C44C0F236
:103440000224CEF8104010241794CEF80C400D241E
:103450001694CEF80840CEF804C044F6A01CC6F678
:10346000000CCDF850C0CEF800C000F00DF9149853
:103470001599169A179BDDF870C0EE460624CEF813
:103480000840CEF804C045F6E01CC6F6000CCDF8A6
:1034900064C0CEF800C001F0D3FA189919981B9BAC
:1034A0006A46916044F6E401C0F20221516045F69B
:1034B0008C61C0F20221116045F6E042C6F60002BE
:1034C0001A92C02100F088FA1A981B991C9BEC46AE
:1034D0000022CCF8082044F66412C0F20222CCF894
:1034E00004204BF68C62C0F20222CCF8002040F29D
:1034F000A452C2F200221D9200F06EFA1D991E988D
:1035000091ED001A91ED010A30EE410A80ED010AB9
:1035100090ED010AB5EE400AF1EE10FA06DBFFE786
:103520001E9890ED010A8DED0A0A07E01E9890EDB5
:10353000010AB1EE400A8DED0A0AFFE71E989DEDE3
:103540000A0A80ED000A90ED010AB5EE400AF1EE9C
:1035500010FA5FEADF918DF87F1090ED000AB7EE68
:10356000001A30EE011A31EE011A80EE010AB6EEB1
:10357000001A30EE010A229880ED000A9DF87F00C3
:1035800024B010BD0000000086B000200590FFE7C9
:103590000598B0F5526F0DDAFFE7059A40F6000185
:1035A000C6F60001002041F82200FFE7059801302F
:1035B0000590EDE700200490FFE70498B0F5527FF6
:1035C0000DDAFFE7049A43F68041C6F600010020B9
:1035D00041F82200FFE7049801300490EDE7002055
:1035E0000390FFE70398B0F5826F0DDAFFE7039AC7
:1035F00044F6A011C6F60001002041F82200FFE7C2
:10360000039801300390EDE700200290FFE7029855
:10361000BF280DDCFFE7029A45F6E011C6F600016F
:10362000002041F82200FFE7029801300290EEE707
:1036300000200190FFE701981F280DDCFFE7019AA9
:1036400045F6E041C6F60001002041F82200FFE700
:10365000019801300190EEE700200090FFE700980C
:1036600001280DDCFFE7009A40F2A451C2F20021CC
:10367000002041F82200FFE7009801300090EEE7BB
:1036800006B07047000000002DE9F04F8DB0DDF866
:1036900074C0DDF870C0DDF86CC0DDF868C0DDF81E
:1036A00064C0DDF860C0DDF85CC0DDF858C00C9087
:1036B0000B910A9209930C980B990A9A099BDDF8D1
:1036C00058C0179C189D199E1A9FDDF86C80DDF874
:1036D0007090DDF874A0EE464FF0010BCEF820B0EC
:1036E000CEF81CA0CEF81890CEF81480CEF810704A
:1036F000CEF80C60CEF80850CEF80440CEF800C0EA
:1037000000F006F80DB0BDE8F08F000000000000EA
:1037100090B0DDF860C0DDF85CC0DDF858C0DDF8C1
:1037200054C0DDF850C0DDF84CC0DDF848C0DDF80D
:1037300044C0DDF840C00F900E910D920C93002014
:103740000B90FFE70B981199884280F2AC80FFE75D
:1037500000200A90FFE70A981299884280F29E8022
:10376000FFE700200990FFE709981399884280F24B
:103770009080FFE71598099950F8210008900020E3
:103780000790FFE70798169988425ADAFFE700206A
:103790000690FFE70698179988424DDAFFE70B98E5
:1037A0001899079A00FB012005900A981899069A23
:1037B00000FB0120049000200390FFE703980C9980
:1037C000884234DAFFE70F9805990D9A51430C9A15
:1037D000049B534301FB0231039A114450F821002A
:1037E000029014980799179A5143DDF830C001FBF5
:1037F0000CF1139A069B03FB0CF3534301FB0233BA
:10380000039901FB0231099A114450F821000190FB
:103810009DED021A9DED012A9DED080AA1EE020A16
:103820008DED080AFFE7039801300390C6E7FFE734
:10383000069801300690ADE7FFE707980130079042
:10384000A0E79DED080AB5EE400AF1EE10FA05DD9D
:10385000FFE79DED080A8DED000A04E09FED130AD5
:103860008DED000AFFE79DED000A10980B99129A62
:103870005143139A0A9B534301FB0231099A1144A5
:1038800000EB810080ED000AFFE709980130099004
:103890006AE7FFE70A9801300A905CE7FFE70B98B8
:1038A00001300B904EE710B0704700BF00000000E1
:1038B00084B0A020ADF80E006420ADF80C0000200C
:1038C000ADF80A00FFE7BDF80A001F284DDCFFE74E
:1038D000BDF80A00BDF80C104843C11700EBD161D8
:1038E0000A2000EB5110ADF80800BDF8080000EB0D
:1038F00080008001ADF806000020ADF80400FFE76D
:10390000BDF804003F2829DCFFE7BDF80400BDF83E
:103910000E104843C11700EB9161502000EB91104D
:10392000ADF80200BDF80600BDF80210014440F6F3
:103930008000C2F20020405CBDF80A20BDF80410EF
:1039400001EB821240F20001C6F600018854FFE745
:10395000BDF804000130ADF80400D1E7FFE7BDF881
:103960000A000130ADF80A00ADE704B0704700006E
:1039700080B582B04CF29032C0F2022201921068FF
:103980005168926812689047019908688968C96807
:1039900088470F20012100F077FC02B080BD0000B5
:1039A00080B582B0ADF806004CF29031C0F2022131
:1039B000086889688A68BDF80610904702B080BD23
:1039C00080B54CF22452C0F202221068516892680D
:1039D0001268904780BD000087B0DDF824C0DDF894
:1039E00020C0DDF81CC006900591049203930020CE
:1039F0000290FFE70298039988423FDAFFE70898B0
:103A0000029950F82100019000200090FFE70098F3
:103A1000059988421ADAFFE70698009900EB8100C1
:103A200090ED001A0798039A029B01FB023100EB0C
:103A3000810090ED002A9DED010AA1EE020A8DEDB4
:103A4000010AFFE7009801300090E0E7099858B1BB
:103A5000FFE79DED010AB5EE400AF1EE10FA03DA38
:103A6000FFE700200190FFE701980499029A41F8CE
:103A70002200FFE7029801300290BBE707B07047D1
:103A800080B582B040F2A251C2F200210020019024
:103A9000087040F28451C2F20021086040F2AC513B
:103AA000C2F20021086040F66101C2F200210870F4
:103AB00040F2A351C2F20021087049F6D261C2F26D
:103AC0000021087049F6D161C2F20021087049F660
:103AD0009A61C2F20021088049F69961C2F2002180
:103AE000087040F2A051C2F20021088002F068FB89
:103AF000FFF74AFD00F0A4FC03F04EFD01994FF4DE
:103B0000306000F0C1FB019940F6013000F0BCFBD1
:103B1000019940F2047000F0B7FB019940F2057082
:103B200000F0B2FB4CF29260C0F2022003F0C8FF3A
:103B30004CF2B870C0F202204021202203F0C0FFF6
:103B400069466E2008604CF25C60C0F20220502191
:103B50000A22F02303F0B4FF4CF2FC60C0F2022012
:103B60002821412203F0ACFF4CF27360C0F2022026
:103B700003F0A6FF02B080BD70B596B040F66200BB
:103B8000C2F20020007808B9FFE726E340F66201A0
:103B9000C2F20021002008704CF24031C0F2022134
:103BA000086889688A6840F68001C2F2002190475F
:103BB00048F20401C4F234014FF48030086040F24E
:103BC000AC51C2F20021086801300860FFF770FEB6
:103BD00000F0C6FE002840F0B280FFE749F69A6187
:103BE000C2F2002108880130088002F0E9FA40F2B0
:103BF000A051C2F200210020088040F2A250C2F27F
:103C00000020007801280ED1FFE703F001FD40F20B
:103C10008451C2F200210020086040F2A251C2F299
:103C200000210870FFE740F29051C2F2002100200D
:103C300008804880087188600873487349F69A6064
:103C4000C2F20020008828286DDBFFE740F2AC506C
:103C5000C2F2002000684CF6CD41CCF6CC4148437E
:103C60004FEAB0004CF6CC41C0F6CC41884225D892
:103C7000FFE740F66100C2F20020017800295FEA08
:103C80001F910170007860B1FFE740F6013001211B
:103C9000139100F0F9FA139940F2057000F0F4FA6C
:103CA0000BE040F601300021129100F0EDFA12997C
:103CB00040F2057000F0E8FAFFE7FFE740F2AC5091
:103CC000C2F2002000684CF6CD41CCF6CC4148430E
:103CD0004FEA301043F23331C0F2333188420CD80E
:103CE000FFE749F69A60C2F2002001884CF29D700D
:103CF000C0F2022003F0E4FEFFE749F69960C2F249
:103D00000020007870B9FFE749F69961C2F20021FE
:103D1000012008704CF2EB71C0F20221002000F08B
:103D20001BFCFFE7FFE740F2A250C2F2002001783F
:103D300040F29050C2F2002000F05EFC4DE249F6E5
:103D40009A60C2F200200088282817DBFFE749F6B6
:103D50009A60C2F2002001884CF28070C0F202200A
:103D600003F0AEFE40F601300021119100F08CFA14
:103D7000119940F2057000F087FAFFE749F69A6161
:103D8000C2F2002100200F90088049F69961C2F22A
:103D900000210870159040F20000C6F6000015A939
:103DA000FFF7E6FA01460F988DF853109DF853106F
:103DB000012910900CD1FFE79DED150A9FEDD91A4E
:103DC000B4EE410AF1EE10FA5FEABF901090FFE7FF
:103DD000109800F001008DF852009DF8520040B19B
:103DE000FFE749F69861C2F20021087801300870B7
:103DF00006E049F69861C2F2002100200870FFE752
:103E000040F2A250C2F20020007801460E9128B183
:103E1000FFE70E98012800F05A81DEE140F2AC5035
:103E2000C2F200200068282843D8FFE740F29051F2
:103E3000C2F20021A0200880642048809DF8520032
:103E400000285FEA0F9008711598886000200873B9
:103E5000487340F2AC50C2F2002000684CF6CD41ED
:103E6000CCF6CC4148434FEA301043F23331C0F234
:103E7000333188421CD8FFE79DF853109DED150A99
:103E8000B7EEC00A4CF2DB72C0F202224CF2E470D0
:103E9000C0F20220002918BF10466A46106053EC99
:103EA000102B4CF25F70C0F2022003F009FEFFE716
:103EB00093E19DF8520002F0F3FF9DF8520002F0EA
:103EC000B3FF49F6D160C2F20020007818B1FFE7D5
:103ED00028200D9006E049F6D260C2F2002000785A
:103EE0000D90FFE70D988DF851009DF851000128C5
:103EF0000DDBFFE740F2A350C2F2002000786421FE
:103F000048439DF85110B0FBF1F00C9002E0002006
:103F10000C90FFE70C988DF8500040F2A050C2F2D0
:103F200000200088782853DBFFE79DF850004128E7
:103F300005DBFFE79DF85100272808DCFFE749F67D
:103F40009860C2F200200078202841DBFFE740F2B1
:103F5000A251C2F200210120087040F28451C2F245
:103F60000021002008609DF853109DED150AB7EE62
:103F7000C00A40F2A350C2F2002000789DF85130F0
:103F80009DF850C040F2A052C2F20022B2F800E008
:103F90009DF8524049F69862C2F2002215786A46AE
:103FA00055611461C2F80CE0C2F808C0536010609B
:103FB00053EC102B4CF2AE60C0F2022003F080FDF7
:103FC0004CF61301C0F20221042000F0C5FAFFE70D
:103FD00040F29051C2F20021A020088064224A8061
:103FE0009DF8520000285FEA0F90087115988860CC
:103FF00040F2A350C2F200200078087340F2A050B3
:10400000C2F200200088504348F68902C8F68802B0
:10401000A0FB0220C009487340F2AC50C2F200205D
:1040200000684CF6CD41CCF6CC4148434FEAB00095
:104030004CF6CC41C0F6CC4188423AD8FFE79DF817
:1040400053109DED150AB7EEC00A9DF8520049F6CF
:104050009862C2F20022137840F2A352C2F2002208
:1040600092F800C09DF851E09DF8504040F2A052F7
:10407000C2F2002215884CF2DB72C0F202224CF22E
:10408000E476C0F20226002818BF16466A469661FA
:1040900055611461C2F80CE0C2F808C053601060AA
:1040A00053EC102B4CF21E70C0F2022003F008FDFE
:1040B000FFE740F2A250C2F20020017840F2905097
:1040C000C2F2002000F098FA00F0DEF985E040F23C
:1040D0008451C2F2002108680130086040F6610096
:1040E000C2F20020017800295FEA1F910170007878
:1040F000D0B1FFE74FF4306001210A9100F0C4F81D
:104100000A9940F2047000F0BFF840F60130002137
:104110000B9100F0B9F80B9940F2057000F0B4F87B
:1041200019E000BF6666263F4FF430600021089119
:1041300000F0AAF8089940F2047000F0A5F840F6E3
:1041400001300121099100F09FF8099940F20570B2
:1041500000F09AF8FFE740F28450C2F200200068B5
:10416000B0F5C87F2BD3FFE703F052FA4FF430606D
:104170000021079100F088F8079940F6013000F01F
:1041800083F8079940F2047000F07EF8079940F236
:10419000057000F079F802F013F8079840F2A0518A
:1041A000C2F20021088040F2A251C2F20021087040
:1041B0004CF28360C0F2022003F082FCFFE740F281
:1041C000A250C2F20020017840F29050C2F20020CA
:1041D00000F012FA00F058F9FFE716B070BD0000C9
:1041E00080B582B00190009149F6A061C2F2002131
:1041F000002008704CF22451C0F20221086889683E
:104200008B6801A901229847FFE749F6A060C2F236
:1042100000200078C00708B9FFE7F6E7019802B070
:1042200080BD00000000000081B000900098007880
:10423000C00738B1FFE740F66201C2F20021012059
:104240000870FFE701B0704780B584B00290BDF8F8
:10425000081040F22060C2F200200DF10702FDF7C5
:104260001FFD9DF8070020B1FFE701208DF80F002A
:1042700003E000208DF80F00FFE79DF80F0004B069
:1042800080BD00000000000080B582B001908DF874
:1042900003109DF8030050B1FFE7BDF8041040F291
:1042A0002060C2F200200122FDF70AFD09E0BDF8FE
:1042B000041040F22060C2F200200022FDF700FD51
:1042C000FFE702B080BD000080B582B000F078FA50
:1042D000FFF776FB4FF4FA7002F00AFD4CF23B60F8
:1042E000C0F2022003F0ECFB4CF2F150C0F20220CD
:1042F00003F0E6FB4CF21560C0F2022003F0E0FB95
:1043000000F05AFCC8B1FFE74CF2D450C0F20220D2
:1043100003F0D6FBFFE74FF4306000900121FFF778
:10432000B3FFC820019002F0E3FC00980021FFF7E2
:10433000ABFF019802F0DCFCEDE74CF22E60C0F21E
:10434000022003F0BDFBFFF79BFB4CF2C050C0F214
:10435000022003F0B5FBFFE7FFF70EFCFCE70000CF
:1043600083B08DF807009DF80700014600910428EE
:1043700023D80099DFE801F003090F151B004CF664
:104380001610C0F2022002901DE04CF64510C0F25B
:104390000220029017E04CF65C10C0F2022002905E
:1043A00011E04CF62E10C0F2022002900BE04CF609
:1043B0006F10C0F20220029005E04CF68710C0F2A8
:1043C00002200290FFE7029803B07047000000004F
:1043D00083B08DF807009DF807000146009104287E
:1043E00023D80099DFE801F003090F151B004CF6F4
:1043F000ED00C0F2022002901DE04CF6F500C0F284
:104400000220029017E04CF61010C0F20220029039
:1044100011E04CF6FC00C0F2022002900BE04CF6DA
:104420000910C0F20220029005E04CF60110C0F223
:1044300002200290FFE7029803B0704700000000DE
:1044400080B502F091FC40F20401C2F2002101208B
:10445000087040F66001C2F200210020087049F6A1
:10446000A461C2F20021086040F28851C2F200212A
:10447000086000F051F84CF6D000C0F2022003F0C2
:104480001FFB80BD0000000070470000000000001E
:1044900080B5AAB08DF8A70028918DF89F209DF8CF
:1044A000A7000490FFF794FF049A03462899487BDD
:1044B00091ED020A9FED161A20EE010A91F804C050
:1044C0009DF89FE06946C1F80CE0C1F808C0BDEE58
:1044D000C00A81ED010A08604CF66001C0F20221B9
:1044E0000DF11F00059003F0A3F801460598069111
:1044F000069900F025F80599069A002088544CF694
:104500008410C0F2022003F0DBFA2AB080BD00BFA5
:104510000000C8420000000080B592B04CF638019F
:10452000C0F2022102A8009003F082F80146009830
:104530000191019900F004F812B080BD0000000064
:1045400080B582B0019000910198009902F034FC8E
:1045500002B080BD0000000080B5AAB08DF8A700B1
:1045600028919DF8A70040F20401C2F200210870D2
:104570009DF8A70040F66001C2F20021087040F2E9
:104580008851C2F20021F02008609DF8A700029037
:10459000FFF71EFF03909DF8A70000210591042856
:1045A00008BF64210491FFF7DBFE029A039B844657
:1045B00004986946C1F804C008604CF69F01C0F237
:1045C000022108A8069003F033F8014606980791E7
:1045D0000799FFF7B5FF05980699079A88544CF696
:1045E0008410C0F2022003F06BFA9DF8A70028990E
:1045F00002F0EAFF2AB080BD80B584B003908DF848
:104600000B1003989DF80B10FEF7D6FD8DF80A00ED
:104610009DF80A0040F20401C2F20021087049F638
:10462000A461C2F2002108680130086040F288509D
:10463000C2F20020006840B1FFE740F28851C2F2A8
:104640000021086801380860FFE749F6A460C2F25B
:10465000002000684CF6CD41CCF6CC4148434FEAEF
:10466000B0004CF6CD41C0F6CC4188420BD3FFE7F9
:104670009DF80A0040F66001C2F2002109788842E4
:1046800001D1FFE737E09DF80A0040F66001C2F271
:10469000002108709DF80A0003999DF80B20FFF790
:1046A000F7FE9DF80A0002280ED0FFE79DF80A00E9
:1046B000032809D0FFE79DF80A00042804D0FFE78B
:1046C0009DF80A00B8B9FFE740F28850C2F2002016
:1046D000006880B9FFE740F28851C2F20021F02063
:1046E00008609DF80A000190FFF73AFE0146019824
:1046F00002F06AFFFFE704B080BD00000000000088
:1047000081B08DF803009DF8030038B9FFE7402120
:10471000C4F225014BF6FF70088007E041F240012A
:10472000C4F235014BF6FF700880FFE701B0704717
:1047300081B08DF803009DF8030038B9FFE74021F0
:10474000C4F225014FF6F770088007E041F24001FE
:10475000C4F235014FF6F7700880FFE701B07047EB
:1047600081B08DF801009DF8010038B9FFE74020C5
:10477000C4F225000088ADF8020007E041F24000D5
:10478000C4F235000088ADF80200FFE7BDF8020072
:1047900001B070470000000081B08DF803009DF863
:1047A0000300012809D1FFE741F20211C4F23501EB
:1047B000088840F480400880FFE701B0704700009F
:1047C00080B54CF29C42C0F2022210685168926897
:1047D0001268904764200121FCF7CEFB43F6244188
:1047E000C4F20001088820F4E0600880FFE743F687
:1047F0005040C4F20000007808B1FFE7F7E743F645
:104800002441C4F20001088840F0200020F0D000CC
:104810000880FFE743F65040C4F20000007808B17A
:10482000FFE7F7E743F62441C4F20001088840F0AF
:10483000050020F00A000880FFE743F65040C4F26C
:104840000000007808B1FFE7F7E743F62041C4F223
:104850000001087840F001000870FFE743F650407F
:10486000C4F200000078C008C00708B1FFE7F5E710
:1048700043F60041C4F20001087800F0CF00087050
:1048800043F60241C4F20001087840F001000870CC
:1048900043F60141C4F20001087800F0FE00087000
:1048A000FFE743F65040C4F20000007808B1FFE78C
:1048B000F7E743F64841C4F200014FF40C7008805A
:1048C000FFE743F65040C4F200000078C00708B18B
:1048D000FFE7F6E743F64441C4F200010868052209
:1048E00062F3124008600868022262F30D3008602B
:1048F000086862F34B200860086840F48070086024
:104900000868032262F30200086043F64041C4F2E3
:104910000001087800F0FC000130087043F61441F3
:10492000C4F200010888072262F31F30088008885B
:1049300000F4704000F56A70088043F61641C4F236
:104940000001087840F00100087043F60041C4F20D
:104950000001087840F00100087080BD00000000F0
:1049600084B000200390FF218DF80B108DF80A0011
:10497000ADF80800FFE7BDF80800B0F5006F2DDACC
:10498000FFE7BDF8081040F20000C6F60000405CEA
:104990008DF807009DF807100398084403909DF8D0
:1049A00007009DF80B10884205DAFFE79DF8070025
:1049B0008DF80B00FFE79DF807009DF80A1088426C
:1049C00005DDFFE79DF807008DF80A00FFE7FFE728
:1049D000BDF808000130ADF80800CCE70398C00A24
:1049E0008DF806009DF80A009DF80B10401A8DF80E
:1049F00005009DF806100020082900900EDBFFE757
:104A00009DF806100020F529009007DCFFE79DF8CF
:104A1000050011285FEADF900090FFE7009800F0A2
:104A2000010004B07047000080B582B00020009003
:104A30000190FFF749FC009802B080BD0000000023
:104A40008DB0DDF83CC0DDF838C0DDF834C00C9026
:104A50000B910A92099300200890FFE708980E999D
:104A6000884271DAFFE700200790FFE707980F9967
:104A7000884264DAFFE700200690FFE7069809996C
:104A8000884257DAFFE74FF2CA20CFF2491005906B
:104A900000200490FFE70498012836DCFFE700209F
:104AA0000390FFE7039801282ADCFFE708990498A0
:104AB00000EB410002900799039800EB4100019040
:104AC0000C9802990A9A5143099A019B534301FB9E
:104AD0000231069A114450F8210000909DED000A21
:104AE0009DED051AB4EE410AF1EE10FA03DDFFE781
:104AF00000980590FFE7FFE7039801300390D1E7A6
:104B0000FFE7049801300490C5E705980D99089ACD
:104B10000F9B5A43099BDDF81CC00CFB03FC02FBF6
:104B200003C2069B1A4441F82200FFE706980130B1
:104B30000690A3E7FFE707980130079096E7FFE7A5
:104B400008980130089089E70DB070470000000018
:104B5000B0B586B0059004910392059B049A039822
:104B600040F009C000BF00BFF2E80245E3E802459B
:104B70000FF007C02046294605930492019100904A
:104B800006B0B0BD0000000080B584B00699039067
:104B90000193009203980699009ADDF804C06346D9
:104BA00041F007C000BF00BFE0E802230FF005C0DE
:104BB000039004B080BD000080B588B0642002F08E
:104BC00097F8694640F20770086003A80290002138
:104BD0004FF47A7240F2067301F09AFD029840F2A7
:104BE0001001C2F2002100F04BF820B1FFE70120D4
:104BF0008DF81F001DE04CF24032C0F202220192FB
:104C0000106851689268126890470199086889682D
:104C10008A6840F68001C2F20021904748F2040100
:104C2000C4F234014FF48030086000208DF81F007A
:104C3000FFE79DF81F0008B080BD000000000000E5
:104C400080B582B08DF807009DF8071040F6680027
:104C5000C2F20020009001F0E7FD014600988DF8B7
:104C60000610F02101F0E0FD8DF805009DF806101A
:104C70009DF8050040EA012002B080BD0000000060
:104C800080B59EB01D901C9100201590ADF86E006F
:104C9000ADF86C00ADF86A00ADF86800ADF86600DC
:104CA000ADF86400ADF862008DF861008DF8600029
:104CB000ADF85E001D98169040F66801C2F2002122
:104CC0005C2008721698C068C86016980068086072
:104CD0001698406848601C98C08849F68061C2F206
:104CE0000021129108801C98408948801C98C08936
:104CF00088801C98408AC8801C98C08A08811C98AB
:104D0000408B48811C98C08B88811C98408CC8813E
:104D10001C98C08C4882FE204BF6EF6100F088FCA6
:104D20000C201390032100F083FC0A20149001F062
:104D3000DFFF1398159900F07BFC1398159900F08C
:104D400077FC1398159900F073FC149801F0D0FFCC
:104D500015988DF86100FFE70020FFF771FFADF8AF
:104D60005E00BDF85E0041F2243188420ED0FFE7BC
:104D7000BDF85E0041F21131884207D0FFE7BDF86F
:104D80005E0041F21331884201D1FFE715E00A20AD
:104D900001F0AEFF9DF8600001308DF860009DF8D5
:104DA00060000A2804DBFFE701208DF8610004E0C1
:104DB000FFE701200028CFD1FFE79DF86100002820
:104DC00040F03184FFE749F68060C2F2002000899C
:104DD00078280FDCFFE749F68060C2F200200089E6
:104DE0008000ADF86600BDF86E0040F00200ADF83E
:104DF0006E0029E049F68060C2F200200089F028A8
:104E00000FDCFFE749F68060C2F200200089400015
:104E1000ADF86600BDF86E0040F00100ADF86E0020
:104E200011E049F68060C2F200200089B0F5F07F01
:104E300008DCFFE749F68060C2F200200089ADF887
:104E40006600FFE7FFE7FFE749F68060C2F2002057
:104E5000C088BC280FDCFFE749F68060C2F2002062
:104E6000C0888000ADF86800BDF86E0040F0080012
:104E7000ADF86E002AE049F68060C2F20020C088DA
:104E8000B0F5BC7F0FDCFFE749F68060C2F200207E
:104E9000C0884000ADF86800BDF86E0040F0040026
:104EA000ADF86E0011E049F68060C2F20020C088C3
:104EB000B0F53C7F08DCFFE749F68060C2F20020D5
:104EC000C088ADF86800FFE7FFE7FFE7BDF86810AE
:104ED00040F24E30401A40F66401C2F200210860F0
:104EE000BDF85E0041F22431884240F0D280FFE7F5
:104EF000072048F2883100F09BFB49F68060C2F23F
:104F0000002000890230BDF8681040F66402C2F249
:104F10000022126811444843011D4FF6C040C0F200
:104F20009B1090FBF1F0ADF86C00BDF86C00B0F593
:104F3000FA7F05DDFFE74FF4FA70ADF86C00FFE78C
:104F400049F68060C2F200208088BDF86C1088426B
:104F500008DDFFE7BDF86C0049F68061C2F2002170
:104F60008880FFE749F68061C2F200218A884FF607
:104F7000C040C0F29B10B0FBF2F00438BDF86820CE
:104F800040F66403C2F200231B681A4490FBF2F05F
:104F90000989411A49F69460C2F200200160006854
:104FA00047F62061884208DCFFE749F69460C2F2C8
:104FB0000020006801282ADCFFE749F69460C2F26D
:104FC00000200068012803DCFFE70220119017E0B1
:104FD00049F69460C2F20020006847F621618842D9
:104FE00004DBFFE747F62060109006E049F6946086
:104FF000C2F2002000681090FFE710981190FFE7C0
:10500000119849F69461C2F200210860FFE749F661
:105010008062C2F2002291884FF6C040C0F29B101D
:10502000B0FBF1F0043849F69461C2F2002109683E
:105030001289114490FBF1F0BDF86810411A40F656
:105040006400C2F20020016000683C2803DCFFE736
:105050003D200F9016E040F66400C2F20020006888
:10506000B0F5806F04DBFFE740F2FF300E9006E002
:1050700040F66400C2F2002000680E90FFE70E9830
:105080000F90FFE70F9840F66401C2F2002108601C
:10509000CBE049F68060C2F2002000890430BDF800
:1050A000681040F66402C2F20022126811444843BC
:1050B000011D4FF6C040C0F29B1090FBF1F0ADF81F
:1050C0006C00BDF86C00B0F5FA7F05DDFFE74FF42A
:1050D000FA70ADF86C00FFE749F68060C2F200207C
:1050E0008088BDF86C10884208DDFFE7BDF86C00D1
:1050F00049F68061C2F200218880FFE749F68061AD
:10510000C2F200218A884FF6C040C0F29B10B0FB6B
:10511000F2F00438BDF8682040F66403C2F20023C0
:105120001B681A4490FBF2F00989411A49F6946011
:10513000C2F200200160006840F6B831884208DC05
:10514000FFE749F69460C2F20020006803282ADCD9
:10515000FFE749F69460C2F200200068032803DCF0
:10516000FFE704200D9017E049F69460C2F200209A
:10517000006840F6B931884204DBFFE740F6B830FA
:105180000C9006E049F69460C2F2002000680C9092
:10519000FFE70C980D90FFE70D9849F69461C2F275
:1051A00000210860FFE749F68062C2F20022918880
:1051B0004FF6C040C0F29B10B0FBF1F0043849F646
:1051C0009461C2F2002109681289114490FBF1F048
:1051D000BDF86810411A40F66400C2F20020016078
:1051E00000682A2803DCFFE72B200B9016E040F62E
:1051F0006400C2F200200068B0F5806F04DBFFE7B6
:1052000040F2FF300A9006E040F66400C2F200204F
:1052100000680A90FFE70A980B90FFE70B9840F6AA
:105220006401C2F200210860FFE749F68062C2F221
:105230000022508849F69461C2F20021096812895F
:105240001144023988420EDDFFE749F69460C2F24C
:105250000020006849F68061C2F200210A891044EA
:1052600002384880FFE7BDF86800C0F53C7000EBED
:10527000D0704008ADF86A0049F68060C2F20020A4
:10528000B0F90A00BDF96A104942884205DAFFE721
:10529000BDF96A004042099019E049F68060C2F207
:1052A0000020B0F90A00BDF96A10884204DDFFE76A
:1052B000BDF96A00089007E049F68060C2F200205C
:1052C000B0F90A000890FFE708980990FFE70999EC
:1052D00049F68060C2F200204181BDF86A100131B8
:1052E000ADF86A10BDF86A104289891AADF86410E9
:1052F000BDF86610C1F5F07101EBD1714908ADF848
:105300006A10B0F90C00BDF96A104942884205DA0A
:10531000FFE7BDF96A004042079019E049F6806056
:10532000C2F20020B0F90C00BDF96A10884204DD19
:10533000FFE7BDF96A00069007E049F68060C2F217
:105340000020B0F90C000690FFE706980790FFE7F1
:10535000079849F68061C2F2002105918881BDF865
:105360006A000430ADF86A00BDF86A008989084413
:10537000ADF862001B200121049100F059F9049856
:10538000BDF8641000F054F9BDF86210022000F07E
:105390004FF9BDF86610032000F04AF9BDF8681017
:1053A000042000F045F940F66400C2F200200188B4
:1053B000052000F03DF949F69460C2F20020018812
:1053C000062000F035F90A204FF4B27100F030F9F0
:1053D000082040F2BB1100F02BF9092040F2D9114E
:1053E00000F026F90598008848B9FFE749F6806083
:1053F000C2F2002041880B2000F01AF9FFE7BDF847
:105400006E0040F44C710D2000F012F9312027217C
:1054100000F00EF932201A2100F00AF9332005219C
:1054200000F006F949F68060C2F20020C1893520FB
:1054300000F0FEF8BDF85E0041F2243188427ED1D2
:10544000FFE7BDF86410C92000F0F2F8BDF8621063
:10545000CA2000F0EDF8BDF86610CB2000F0E8F8A7
:10546000BDF86810CC2000F0E3F840F66400C2F20A
:1054700000200188CD2000F0DBF849F69460C2F2EC
:1054800000200188CE2000F0D3F8D1204FF4B27173
:1054900000F0CEF8CF2040F2BB1100F0C9F8D020C8
:1054A00040F2D91100F0C4F849F68060C2F2002041
:1054B000008848B9FFE749F68060C2F200204188C1
:1054C000D22000F0B5F8FFE7BDF86E0040F44C7153
:1054D0000E2000F0ADF83920272100F0A9F83A207D
:1054E0001A2100F0A5F83B20052100F0A1F849F6AB
:1054F0008060C2F20020C189362000F099F8BDF822
:105500006E100020B0EB910F05D0FFE77220102144
:1055100000F08EF804E07220002100F089F8FFE727
:105520000F2040F2011100F083F84720812100F0A4
:105530007FF848204FF6EC7100F07AF80DE00F206C
:10554000112100F075F84720812100F071F8482002
:105550004FF6E77100F06CF8FFE707204FF4627137
:1055600000F066F81C2040F2033100F061F82C20B6
:10557000032100F05DF849F68060C2F20020008847
:1055800028B9FFE7AF20002100F052F845E049F6C6
:105590008060C2F2002003900188A52000F048F846
:1055A000A6200221029100F043F80299A82000F001
:1055B0003FF80399C88809894843C11700EB9170E7
:1055C0008010B0F5803F0DDAFFE749F68061C2F246
:1055D0000021C88809894843C11700EB91708010E9
:1055E000019003E04FF6FF700190FFE7019881B250
:1055F000B02000F01DF8AE20142100F019F8AF2003
:1056000040F2011100F014F849F68060C2F2002067
:105610004188AD2000F00CF8FFE7FE204DF6AD61AB
:1056200000F006F8FFE79DF861001EB080BD0000A5
:1056300080B582B08DF80700ADF804109DF8071012
:105640009DF8052040F66800C2F20020009001F0AD
:105650001BF900989DF80420F02101F015F902B023
:1056600080BD00000000000082B00190002000908A
:10567000FFE70098B0F5006F18DAFFE7019800998E
:10568000405C00EE100AB8EE400A9FED091A80EE69
:10569000010A45F66050C6F6000000EB810080ED7F
:1056A000000AFFE7009801300090E2E702B070477F
:1056B00000007F430000000086B0059004918DF843
:1056C0000F208DF80E300020029001908DF803001D
:1056D0008DF802009DF80F0050B3FFE70598029087
:1056E0000298B0F1FF3F04DCFFE7029840420290CD
:1056F000FFE7FFE7029A9DF80E1092FBF1F000FB26
:10570000112030300499087002989DF80E1090FB1B
:10571000F1F002909DF8020001308DF8020002982D
:1057200008B9FFE703E0049801300490E2E734E0B1
:1057300005980190FFE7019A9DF80E10B2FBF1F079
:1057400000FB11208DF803009DF803000A2806DBFA
:10575000FFE79DF8030037308DF8030005E09DF862
:10576000030030308DF80300FFE79DF80300049933
:10577000087001989DF80E10B0FBF1F001909DF8B3
:10578000020001308DF80200019808B9FFE703E03C
:10579000049801300490CEE7FFE79DF8020006B0C0
:1057A000704700000000000084B0039002910020C8
:1057B00001908DF803000190FFE702990198B0EB8A
:1057C000510F1BD2FFE703990298019A801A0844EF
:1057D00010F8010C8DF80300039A019BD05C02992C
:1057E000C91A114401F8010C9DF803000399019AAC
:1057F0008854FFE7019801300190DEE704B070475C
:10580000B0B590B00F900E910F98C06905900598B3
:1058100018B9FFE70E9805902EE0059902910868E7
:105820004A688B68D1F80CC0D1F810E04C690B9431
:10583000CDF828E0CDF824C0089307920690886937
:10584000C9690D910C90059903910E9A0492106804
:105850005368D2F808C0D2F80CE0146955694D615C
:105860000C61C1F80CE0C1F808C04B600860906999
:10587000D269CA618861FFE70F98816905988847F6
:105880000F98C069C0B1FFE70F98C16901910698F0
:10589000079A089BDDF824C0DDF828E00B9C4C61DA
:1058A000C1F810E0C1F80CC08B604A6008600C9829
:1058B0000D9ACA618861FFE710B0B0BD000000001A
:1058C00080B58AB08DF82700FCF72AF8FCF794F829
:1058D0000890FCF725F8FBF78FF99DF827008DF865
:1058E0000200089840680088ADF8000000208DF89C
:1058F00008000898006A01900898806928B1FFE7BD
:1059000008986946FFF77CFFFFE70AB080BD0000FA
:1059100085B0ADF81200ADF810108DF80F20BDF86D
:1059200012100020C4F2400040EAD10041F6E071BC
:10593000C4F2400108400290BDF8101001208840D8
:1059400001900298C06800909DF80F0001280AD1CC
:10595000FFE70199009820EA014000900199009822
:105960000843009009E0019900988843009001994C
:10597000009840EA01400090FFE700980299C86053
:1059800005B070470000000082B0ADF8060000913D
:105990009DF80200C007E8B1FFE7BDF806206FF0F0
:1059A0003F0101EA9200D2B200EB820340F600020E
:1059B000C4F24002985820F480309850009820F4A7
:1059C0008030BDF8063001EA9301DBB201EB8301C0
:1059D0008850FFE70098BDF806206FF03F0101EA0C
:1059E0009201D2B201EB820140F60002C4F2400201
:1059F000885002B07047000080B584B003900398CF
:105A0000FDF71AFB03980190FBF7EAF90020ADF8C7
:105A10000A00FFE7BDF80A0001990988884212DAF6
:105A2000FFE701984168BDF80A2001EBC2008088B9
:105A300051F83210FFF7A8FFFFE7BDF80A00013068
:105A4000ADF80A00E6E7FBF797F904B080BD000067
:105A500080B582B001908DF803108DF802209DF979
:105A60000200FBF725F89DF90200FBF725F99DF9E7
:105A700002009DF80310019AFAF776FF02B080BD8C
:105A800080B582B0019000910198009A917A92F9C4
:105A90000B20FFF7DDFF0198009A117992F905209C
:105AA000FFF7D6FF0198009A917992F90720FFF746
:105AB000CFFF0198009A117A92F90920FFF7C8FFE9
:105AC00002B080BD0000000080B586B005908DF862
:105AD00013100598406A0090009818B9FFE701A8D4
